:1000000043C100005FC100005DC100005BC1000092
:1000100059C1000057C1000055C1000053C1000084
:1000200051C100004FC100004DC100004BC1000094
:1000300049C1000047C1000045C10000E6C50000FD
:1000400041C100003FC100003DC100003BC10000B4
:1000500039C1000037C1000035C1000033C10000C4
:1000600059C700002FC100002DC100002BC10000A6
:1000700029C1000027C1000025C1000023C10000E4
:1000800024C600001FC100001DC100001BC10000EC
:1000900092C70000B4C7000015C10000ACC3000047
:1000A00011C100000FC100000DC100000BC1000014
:1000B00009C1000007C1000005C1000003C1000024
:1000C00001C10000FFC00000FDC00000FBC0000037
:1000D000F9C00000F7C00000F5C00000F3C0000048
:1000E000F1C0000018048B048B048B048B048B0478
:1000F0008B048B0418048B048B048B048B048B04FB
:100100008B048B0420048B048B048B048B048B04E2
:100110008B048B048B048B048B048B048B048B0467
:100120008B048B0420048B048B048B048B048B04C2
:100130008B048B048B048B048B048B048B048B0447
:100140008B048B047F048B048B048B048B048B0443
:100150008B048B045C048B048B048B048B048B0456
:100160008B048B048B048B048B048B048B048B0417
:100170008B048B044D048B048B048B048B048B0445
:100180008B048B046E046E616E00696E6600004025
:100190007A10F35A00A0724E18090010A5D4E80096
:1001A00000E87648170000E40B54020000CA9A3BAE
:1001B000000000E1F5050000809698000000404234
:1001C0000F000000A08601000000102700000000C2
:1001D000E803000000006400000000000A000000C6
:1001E00000000100000000002C76D888DC674F0872
:1001F00023DFC1DFAE59E1B1B796E5E3E453C63A78
:10020000E651997696E8E6C28426EB898C9B62EDEE
:10021000407C6FFCEFBC9C9F40F2BAA56FA5F490A8
:10022000055A2AF75C936B6CF9676DC11BFCE0E41F
:100230000D47FEF520E6B500D0ED902E0300943575
:1002400077050080841E080000204E0A000000C8C8
:100250000C333333330F986E12831141EF8D211419
:10026000893BE65516CFFEE6DB18D1844B381BF7E9
:100270007C1D901DA4BBE424203284725E22810088
:10028000C9F124ECA1E53D2711241FBECFEFD1E237
:10029000DEBFCDBF13E0A0E0B2E0E4E7F0E200E0B3
:1002A0000BBF02C007900D92A836B107D9F724E022
:1002B000A8E6B3E001C01D92A130B207E1F753D325
:1002C0000C9438109DCE80917A008095881F8827E5
:1002D000881F0895EAE7F0E080E8808310927C00B0
:1002E00080818460808308951F93CF93DF93182FBC
:1002F000EADF8130B1F4EEDF14C01883908190649E
:100300009083908196FDFDCF8D919C911197480F20
:10031000591F215091F7CA01969587959695879513
:100320000AC024E040E050E0CCE7D0E0EAE7F0E0AB
:10033000A8E7B0E0E2CFDF91CF911F9108958FE160
:10034000D3DF069780F48EE1CFDF8B5F91409C0175
:1003500022F422273327281B390B81E0223531056F
:1003600018F480E0089581E008959091E0039830BA
:10037000E8F4A0ECB3E09196EC91919790969C9163
:100380009097E90FE770F0E0EE0FFF1FEE0FFF1FF1
:10039000E054FC4F808361834283238390968C9149
:1003A00090978F5F90968C9380E0089581E00895F8
:1003B0004F925F927F928F929F92AF92BF92CF9215
:1003C000DF92EF92FF920F931F93CF93DF93EC0195
:1003D000009709F496C06AE070E00E94200F892B14
:1003E00061F46DE070E0CE010E94200F892B09F4CA
:1003F00088C06894772473F803C06894772473F8EE
:1004000064E270E0CE010E94200FEC01009709F435
:1004100078C06AE270E002960E94200F8C01898108
:100420008F7D833409F06AC08A818C3209F066C0FE
:100430000115110509F462C07E0183E0E80EF11C8C
:10044000C7010E94200E5C016CE270E0C7010E94AF
:10045000200F7C01009709F451C0EC012196CE01D8
:100460000E94200E4C016CE270E0CE010E94200F31
:100470006C01009709F43FC0EC012196CE010E9467
:10048000200E2C016CE270E0CE010E94200FEC01E6
:10049000009799F17C019FEFE91AF90AC7010E94C0
:1004A000200E6C016CE270E0C7010E94200F8017E3
:1004B000910710F4892B11F52C2D442D682D8A2DD0
:1004C00054DFDD24DF92CF9255245F924F9299241E
:1004D0009F928F92BB24BF92AF9280E092E09F9355
:1004E0008F931ED68DB79EB70A960FB6F8949EBF0F
:1004F0000FBE8DBF06C0E70101C0E6017A947110FE
:100500007FCFDF91CF911F910F91FF90EF90DF9000
:10051000CF90BF90AF909F908F907F905F904F90C3
:1005200008952D9A08952D9808958091E0038823C9
:1005300009F45CC08091E10390E0FC01EE0FFF1F25
:10054000EE0FFF1FE054FC4F2081213099F12A3A31
:1005500009F03DC0FC01EE0FFF1FEE0FFF1FE0543E
:10056000FC4F21812B3A99F5FC01EE0FFF1FEE0F96
:10057000FF1FE054FC4F22812D3C49F5880F991F45
:10058000880F991FFC01E054FC4F83818F3EF9F4E2
:1005900085E192E09F938F93C3D598E088E10FB6F1
:1005A000F894A895809360000FBE909360000F9020
:1005B0000F90FFCF880F991F880F991FFC01E054FF
:1005C000FC4F8181811102C0ACDF01C0ACDFE0ECE7
:1005D000F3E081A18F5F81A381A1883010F0109298
:1005E000E103E0ECF3E080A1815080A308955D98E1
:1005F0000895259A2D9A0895559A5D9A089545C3B0
:100600000895ECEBF0E010828CE08093B8008FEF5F
:100610008093BB0084E08083E6E7F3E080818E7FF7
:10062000808380818D7F808308958091BC0080FDD0
:100630001AC08091760380FD16C0809174038823D0
:1006400091F0A8E6B3E08C91880F8C93E6E7F3E095
:1006500080818160808380818D7F80831D961C9244
:1006600085EA8093BC000895E0DFE6E7F3E080814F
:1006700080FDFDCF80917603869581700895CF939C
:10068000DF93C8E6D3E08EE088838FE0898381E042
:100690008C878B87E9DF8B81082E000C990B49969C
:1006A0009F938F9382E292E09F938F9339D50F901F
:1006B0000F900F900F90DF91CF910895CF92DF921E
:1006C000EF92FF920F931F93CF93DF93C8E6D3E08F
:1006D0008EE0888381E089838C8787E08B87C4DF05
:1006E0008B810C8110E0182B8D81EE80F12CF82A83
:1006F0008F81688570E06B01D82A8985843C39F048
:100700008EE292E09F938F930BD50F900F90B601DE
:10071000DD0C880B990B13D62DEC3CEC4CEC5DE317
:100720009AD69F938F937F936F93B701FF0C880B9B
:10073000990B05D62DEC3CEC4CEC5DE38CD69F93ED
:100740008F937F936F93B801110F880B990BF7D597
:100750002DEC3CEC4CEC5DE37ED69F938F937F9326
:100760006F938AE392E09F938F93DAD48DB79EB70D
:100770000E960FB6F8949EBF0FBE8DBFDF91CF913E
:100780001F910F91FF90EF90DF90CF9008951F93EE
:10079000CF93DF93C8E6D3E08EE0888387E0898338
:1007A00081E08C878B871B825FDF8B81843CF9F42F
:1007B0001EE0188380E1898381E38A8380E88B834C
:1007C00083E08C871B8650DF188388E0898381E073
:1007D0008C878B871B8248DF8B818370823039F452
:1007E00085E592E09F938F939BD40F900F90DF91BC
:1007F000CF911F9108951F920F920FB60F9211245F
:100800000BB60F922F933F938F939F93AF93BF930A
:10081000EF93FF93E091B9008E2F90E0FC013897A1
:10082000E135F10508F077C0EE58FF4F0C94170E34
:10083000809168038093BB0085E88093BC007AC0F8
:10084000E8E6F3E095858485981780F4DF01E58577
:1008500081E08E0F1D968C93F0E0E859FC4F81816A
:100860008093BB0085E88093BC0064C080917303D3
:10087000882351F0E8E6F3E015868081816080836B
:1008800085EA8093BC0056C084E98093BC00E6E70B
:10089000F3E080818E7F80834DC0A8E6B3E01D9693
:1008A000EC911D9781E08E0F1D968C93F0E0809166
:1008B000BB00E859FC4F8383E8E6F3E02585838598
:1008C00030E090E001972817390724F485EC8093F5
:1008D000BC0030C085E88093BC002CC0E09175035B
:1008E000F0E08091BB00E859FC4F838384E980935A
:1008F000BC00E6E7F3E080818E7F80831BC085EA41
:100900008093BC00E6E7F3E0808182608083808191
:100910008E7F80830FC08091B90080936B0384E049
:100920008093BC00E6E7F3E0808182608083808171
:100930008E7F8083FF91EF91BF91AF919F918F91B7
:100940003F912F910F900BBE0F900FBE0F901F90F5
:1009500018952D9A2D9885B12D9A809177038F5FE8
:10096000809377030895CF93DF93CDB7DEB7A09739
:100970000FB6F894DEBF0FBECDBF93E080E80FB690
:10098000F89480936100909361000FBE32DE34DEF4
:100990008FEF93EB0197F1F700C00000C4DD27DE75
:1009A0002EDEE3D089EA94E022D1F1D216D229DEFC
:1009B000789488E692E09F938F93B2D38BE792E08E
:1009C0009F938F9381E892E09F938F93A9D38DE8B3
:1009D00092E09F938F9385E992E09F938F93A0D3AA
:1009E00079DCADDC0FB6F894DEBF0FBECDBF813031
:1009F00041F481EA92E09F938F9392D30F900F90EE
:100A000007C083EB92E09F938F938AD30F900F9050
:100A10002D9A2D9885B12D9ABADE50DE30DEF4D1B4
:100A20000F2EF9EC8F2EF2E09F2EF02D0F2EFFEC03
:100A3000AF2EF2E0BF2EF02D0F2EFEEDCF2EF2E006
:100A4000DF2EF02D0F2EF4EEEF2EF2E0FF2EF02D24
:100A50000CEE12E00F2EF5EF6F2EF2E07F2EF02D50
:100A60003FEF8FEC92E0315080409040E1F700C0C2
:100A700000005BDDFCD117D2BFD09F938F937F9393
:100A80006F939F928F924CD382E02EDCBC0180E06A
:100A900090E053D420E030E040E25BE3DCD420E09F
:100AA00030E040E05FE37CD32AE037ED43E25CE3F3
:100AB000DCD39F938F937F936F93BF92AF9230D38A
:100AC00080E012DCBC0180E090E037D420E030E030
:100AD00040E25BE3C0D49F938F937F936F93DF9249
:100AE000CF921ED380E000DCBC0180E090E025D4F2
:100AF00020E030E040E25BE3AED49F938F937F939E
:100B00006F93FF92EF920CD380E0EEDBBC0180E0AC
:100B100090E013D420E030E040E25BE39CD420E09E
:100B200030E048E453E497D49F938F937F936F937F
:100B30001F930F93F5D260E2CE0101968ED2582E0C
:100B40000FB6F894DEBF0FBECDBF882309F488CF5F
:100B50007F926F92E5D2652DCE010196A3D2CE0190
:100B6000019626DC0F900F907BCFE0E7F0E08081CC
:100B7000887F8083E6EBF0E0808180628083109242
:100B8000B20085E08093B10080818A7131F50BC09D
:100B9000AFEFB9E51197F1F700C00000915019F0DF
:100BA00080818A71A9F78091E2039091E303A0917B
:100BB000E403B091E5038093E6039093E703A093E9
:100BC000E803B093E9031092EB031092EA03E0E725
:100BD000F0E080818160808308958FEF99E501972F
:100BE000F1F700C0000095E1E6EBF0E0D9CF90937B
:100BF000EB038093EA0308956091E6037091E703A5
:100C00008091E8039091E90308951F920F920FB627
:100C10000F9211240BB60F922F933F934F935F9334
:100C20006F937F938F939F93AF93BF93EF93FF93B4
:100C30008091E6039091E703A091E803B091E90366
:100C40000196A11DB11D8093E6039093E703A09345
:100C5000E803B093E903E091EA03F091EB033097E6
:100C600009F00995FF91EF91BF91AF919F918F91FD
:100C70007F916F915F914F913F912F910F900BBE9C
:100C80000F900FBE0F901F9018956A9A6B9A6C9AEE
:100C90006D9A6E9A6F9A7298739874987598769800
:100CA000779882E080939000E1E9F0E080818360B2
:100CB000808389E990E09093990080939800E1E720
:100CC000F0E080818260808308951F920F920FB6BA
:100CD0000F9211240BB60F922F933F938F939F93F4
:100CE000EF93FF93E8E7F3E083818F5F8383838152
:100CF000813410F113828081181614F4739805C0A2
:100D00008091780388230CF47298809178031816E8
:100D100014F4759805C08091780388230CF47498B6
:100D200080917803181614F477983CC0809178036A
:100D30008823C4F5769836C0E8E7F3E08081238104
:100D4000082E000C990B99231CF49195819591091B
:100D500030E08217930711F472987398E8E7F3E094
:100D600081812381082E000C990B99231CF4919505
:100D70008195910930E08217930711F47498759862
:100D8000E8E7F3E082812381082E000C990B992378
:100D90001CF491958195910930E08217930711F425
:100DA00076987798FF91EF919F918F913F912F9136
:100DB0000F900BBE0F900FBE0F901F901895ECEE8A
:100DC000F3E0148A81E08183808181508083828175
:100DD0008EBD84898823E9F30895209A269AEAE053
:100DE000F1E08081806480832E9AEBE0F1E08081E5
:100DF00080648083239A229A219A81ED8CBD81E0C0
:100E00008DBD8EB5789408951F93CF93DF93CCEE6C
:100E1000D3E080E88A831C8682E088832E98CFDF27
:100E20002E9A8C85853DF9F48EE78A8385E18B8344
:100E300012E018832E98C3DF2E9A82E48A8386E01C
:100E40008B8318832E98BBDF2E9A83E48A831B83BF
:100E500018832E98B4DF2E9A8AEF92E09F938F9397
:100E60005FD10F900F90DF91CF911F910895CF9395
:100E7000DF93CCEED3E081EA8A8382E088832E98E8
:100E80009EDF2E9A8C8590E047969F938F938CE2FD
:100E900093E09F938F9344D10F900F900F900F90FA
:100EA000DF91CF910895CF93DF93CCEED3E082E929
:100EB0008A8387E088832E9882DF2E9A2D858C8501
:100EC00090E0922B9F938F938AE393E09F938F936D
:100ED00027D12F858E8590E0922B9F938F9389E465
:100EE00093E09F938F931CD12989888990E0922B5E
:100EF0009F938F9388E593E09F938F9311D18DB744
:100F00009EB70C960FB6F8949EBF0FBE8DBFDF91B3
:100F1000CF9108951F920F920FB60F9211240BB626
:100F20000F928F939F93AF93BF93EF93FF93ACEE8A
:100F3000B3E01196EC911197F0E08EB5E551FC4FBE
:100F400083878C919FEF980F9C93811105C0FD01C1
:100F500081E0848B138A0EC0ACEEB3E01196EC9165
:100F6000119781E08E0F11968C93F0E0E451FC4FC5
:100F700082818EBDFF91EF91BF91AF919F918F9133
:100F80000F900BBE0F900FBE0F901F9018951092F0
:100F9000CD0085E08093CC0088E98093C90086E08D
:100FA0008093CA0010929E0310929F0310927C03BC
:100FB00010927D0308951F920F920FB60F92112485
:100FC0000BB60F928F939F93EF93FF938091CE0078
:100FD000E0919F03EF5FEF71E0939F0390919E0379
:100FE000F0E0E056FC4F8083FF91EF919F918F914D
:100FF0000F900BBE0F900FBE0F901F9018951F9271
:101000000F920FB60F9211240BB60F928F939F93EE
:10101000EF93FF9390917D0380917C03981769F083
:10102000E0917C03EF5FEF71E0937C03F0E0E25826
:10103000FC4F80818093CE0005C0E9ECF0E0808118
:101040008F7D8083FF91EF919F918F910F900BBEC9
:101050000F900FBE0F901F901895AC01862F90E057
:1010600019C031E0390FDA01A90FB11D20919F039A
:1010700090919E032917D1F3E0919E03EF5FEF71EA
:10108000E0939E03F0E0E056FC4F90819C9338176C
:1010900041F0932F30919F0320919E033213E1CFB3
:1010A000892F0895CF93DF93611108C0FC0101904F
:1010B0000020E9F731976E2F681B61F1DC01615068
:1010C000262F30E02F5F3F4FAC01420F531FC9EC7A
:1010D000D0E08D9130917D033F5F3F7190917C0313
:1010E000391721F008C0915011F416C09FEF2091DC
:1010F0007C033217C1F3E32FF0E0E258FC4F80830A
:1011000030937D03988190629883A417B50709F7FF
:1011100080E003C080E001C081E0DF91CF910895BD
:10112000AF92BF92CF92DF92EF92FF920F931F93F5
:10113000CF93DF93CDB7DEB78E01035F1F4FF8016A
:10114000C190D1908F01ADB6BEB69F01A60160E0FF
:1011500070E080E090E0CED601962DB73EB7281B18
:10116000390B0FB6F8943EBF0FBE2DBF8DB79EB79B
:1011700001967C01A801B601F5D660E0C70192DFB7
:101180000FB6F894BEBE0FBEADBEDF91CF911F91DA
:101190000F91FF90EF90DF90CF90BF90AF900895A8
:1011A0005058BB27AA270ED01CC10DD130F012D148
:1011B00020F031F49F3F11F41EF402C10EF4E095CB
:1011C000E7FBF8C0E92F1ED180F3BA176207730757
:1011D0008407950718F071F49EF536C10EF4E0957A
:1011E0000B2EBA2FA02D0B01B90190010C01CA01E1
:1011F000A0011124FF27591B99F0593F50F4503E8C
:1012000068F11A16F040A22F232F342F4427585F7D
:10121000F3CF469537952795A795F0405395C9F795
:101220007EF41F16BA0B620B730B840BBAF091504D
:10123000A1F0FF0FBB1F661F771F881FC2F70EC0EC
:10124000BA0F621F731F841F48F4879577956795BF
:10125000B795F7959E3F08F0B3CF9395880F08F0A8
:101260009927EE0F9795879508950CD0BAC0B2D004
:1012700040F0A9D030F021F45F3F19F09BC051112C
:10128000E4C09EC0BFD098F39923C9F35523B1F3AE
:10129000951B550BBB27AA2762177307840738F0E5
:1012A0009F5F5F4F220F331F441FAA1FA9F333D044
:1012B0000E2E3AF0E0E830D091505040E695001CF8
:1012C000CAF729D0FE2F27D0660F771F881FBB1FB4
:1012D000261737074807AB07B0E809F0BB0B802D8E
:1012E000BF01FF2793585F4F2AF09E3F510568F0DA
:1012F00061C0ABC05F3FECF3983EDCF38695779519
:101300006795B795F7959F5FC9F7880F911D9695DB
:10131000879597F90895E1E0660F771F881FBB1F37
:10132000621773078407BA0720F0621B730B840BE4
:10133000BA0BEE1F88F7E0950895E89409C097FB73
:101340003EF490958095709561957F4F8F4F9F4F9C
:101350009923A9F0F92F96E9BB279395F6958795E0
:1013600077956795B795F111F8CFFAF4BB0F11F4A3
:1013700060FF1BC06F5F7F4F8F4F9F4F16C088234A
:1013800011F096E911C0772321F09EE8872F762F80
:1013900005C0662371F096E8862F70E060E02AF0C1
:1013A0009A95660F771F881FDAF7880F96958795AD
:1013B00097F9089597F99F6780E870E060E00895D5
:1013C0009FEF80EC089500240A941616170618065D
:1013D0000906089500240A94121613061406050639
:1013E0000895092E0394000C11F4882352F0BB0FCA
:1013F00040F4BF2B11F460FF04C06F5F7F4F8F4F2D
:101400009F4F089557FD9058440F551F59F05F3F67
:1014100071F04795880F97FB991F61F09F3F79F016
:1014200087950895121613061406551FF2CF469598
:10143000F1DF08C0161617061806991FF1CF86951A
:101440007105610508940895E894BB2766277727FE
:10145000CB0197F908950BD0C4CFB5DF28F0BADFE0
:1014600018F0952309F0A6CFABCF1124EECFCADF39
:10147000A0F3959FD1F3950F50E0551F629FF001A7
:10148000729FBB27F00DB11D639FAA27F00DB11D00
:10149000AA1F649F6627B00DA11D661F829F222789
:1014A000B00DA11D621F739FB00DA11D621F839F10
:1014B000A00D611D221F749F3327A00D611D231FE6
:1014C000849F600D211D822F762F6A2F11249F5734
:1014D00050408AF0E1F088234AF0EE0FFF1FBB1F57
:1014E000661F771F881F91505040A9F79E3F5105F6
:1014F00070F060CFAACF5F3FECF3983EDCF38695A7
:1015000077956795B795F795E7959F5FC1F7FE2BA0
:10151000880F911D9695879597F908952F923F9280
:101520004F925F926F927F928F929F92AF92BF92F3
:10153000CF92DF92EF92FF920F931F93CF93DF939F
:10154000CDB7DEB760970FB6F894DEBF0FBECDBF44
:101550007C011B016A01FC0117821682838181FFD5
:101560002AC39E012F5F3F4F3901F7019381F1019B
:1015700093FD859193FF81911F01882309F417C37F
:10158000853239F493FD859193FF81911F01853256
:1015900031F4B70190E072D456016501E6CF10E056
:1015A000512C912CFFE1F915D8F08B3279F038F4F9
:1015B000803279F08332A1F4F92DF0612EC08D32A2
:1015C00061F0803369F4292D21602DC0392D3260FE
:1015D000932E892D8460982E2AC0E92DE86015C0CD
:1015E00097FC2DC020ED280F2A3088F496FE06C007
:1015F0003AE0139F200D1124122F19C08AE0589E43
:10160000200D1124522EE92DE0629E2E10C08E3244
:1016100031F496FCCCC2F92DF0649F2E08C08C36B4
:1016200021F4292D2068922E02C0883641F4F10160
:1016300093FD859193FF81911F018111B3CF9BEBA6
:10164000980F933020F4992D9061805E07C09BE93C
:10165000980F933008F059C1992D9F7E96FF16E0A0
:101660009F73992E853619F49064992E08C086369A
:1016700021F4392F3068932E02C01111115097FEBA
:1016800007C01C3350F444244394410E27E00BC0A0
:10169000183038F027E017E005C027E09CE3492E1A
:1016A00002C0212F412C560184E0A80EB11CF60186
:1016B0006081718182819381042DA301DED26C014E
:1016C000F981FC87F0FF02C0F3FF06C091FC06C061
:1016D00092FE06C000E205C00DE203C00BE201C0AD
:1016E00000E08C858C7019F0011143C280C297FE16
:1016F00010C04C0CFC85F4FF04C08A81813309F4CE
:101700004A94141474F528E0241578F588E0482EDE
:101710002CC096FC2AC0812F90E08C159D059CF072
:101720003CEFC3163FEFD30674F0892D8068982EE6
:101730000AC0E2E0F0E0EC0FFD1FE10FF11D808137
:10174000803319F411501111F4CF97FE0EC04424C8
:101750004394410E812F90E0C816D9062CF41C1931
:1017600004C04424439401C010E097FE06C01C143A
:101770001D0434F4C601019605C085E090E002C066
:1017800081E090E001110196112331F0212F30E02A
:101790002F5F3F4F820F931F252D30E08217930755
:1017A00014F4581A01C0512C892D897041F4552028
:1017B00031F0B70180E290E061D35A94F8CF002372
:1017C00021F0B701802F90E059D393FC08C0552039
:1017D00031F0B70180E390E051D35A94F8CF97FEEF
:1017E0004AC04601D7FE02C0812C912CC60188193F
:1017F0009909F301E80FF91FFE87ED879601241977
:101800003109388B2F87012F10E0119501951109AF
:101810003FEF8316930621F4B7018EE290E02ED3BA
:10182000C814D9044CF08F8598898815990524F43B
:10183000ED85FE85818101C080E3F1E08F1A91087A
:101840002D853E852F5F3F4F3E872D878016910661
:1018500024F0B70190E012D3DBCFC814D90441F4CF
:101860009A81963320F4953319F43C8534FF81E353
:10187000B70190E048C08A81813319F09C859F7E32
:101880009C87B70190E0FAD2111105C094FC16C0F4
:1018900085E690E015C0B7018EE290E0EFD21E5FC2
:1018A00082E001E0080FF301E80FF11D8081B7012C
:1018B00090E0E4D2802F0113F4CFE8CF85E490E0EC
:1018C000B701DCD2D7FC06C0C114D10441F4EC85C9
:1018D000E4FF05C0D194C194D1088DE201C08BE230
:1018E000B70190E0CBD280E32AE0C216D1042CF0FD
:1018F0008F5FFAE0CF1AD108F7CFB70190E0BED2E0
:10190000B701C601C096BAD249C1833631F08337D8
:1019100079F0833509F052C01FC0560132E0A30EA2
:10192000B11CF6018081898301E010E0630111C0E0
:101930005601F2E0AF0EB11CF601C080D18096FED8
:1019400003C0612F70E002C06FEF7FEFC60183D24A
:101950008C01F92DFF7713C0560122E0A20EB11CB5
:10196000F601C080D18096FE03C0612F70E002C0F6
:101970006FEF7FEFC60159D28C01F92DF0689F2ED1
:10198000F3FD18C0852D90E00817190798F4B701EA
:1019900080E290E073D25A94F5CFF60197FC8591DE
:1019A00097FE81916F01B70190E068D251105A946F
:1019B000015011090115110581F7F0C0843611F0AD
:1019C000893659F5560197FE09C024E0A20EB11CD4
:1019D000F60160817181828193810AC0F2E0AF0ECD
:1019E000B11CF60160817181072E000C880B990BE8
:1019F000F92DFF769F2E97FF09C0909580957095E1
:101A000061957F4F8F4F9F4FF0689F2E2AE030E007
:101A1000A301D0D2C82EC6183EC0092D853721F4A7
:101A20000F7E2AE030E01DC0097F8F3691F018F458
:101A3000883559F0BCC0803719F0883711F0B7C02D
:101A4000006104FF09C0046007C094FE08C006607E
:101A500006C028E030E005C020E130E002C020E10F
:101A600032E0560107FF09C084E0A80EB11CF60160
:101A7000608171818281938108C0F2E0AF0EB11C58
:101A8000F6016081718180E090E0A30193D2C82EBD
:101A9000C6180F77902E96FE0BC0092D0E7FC1162B
:101AA00050F494FE0AC092FC08C0092D0E7E05C0B9
:101AB000DC2C092D03C0DC2C01C0D12E04FF0DC08D
:101AC000FE01EC0DF11D8081803311F4097E09C007
:101AD00002FF06C0D394D39404C0802F867809F007
:101AE000D39403FD10C000FF06C01C2DD51478F45C
:101AF000150D1D190CC0D51450F4B70180E290E00B
:101B0000BDD1D394F8CFD51410F45D1801C0512C79
:101B100004FF0FC0B70180E390E0B0D102FF16C010
:101B200001FD03C088E790E002C088E590E0B701BE
:101B30000CC0802F867851F001FF02C08BE201C0FB
:101B400080E207FD8DE2B70190E098D1C11630F434
:101B5000B70180E390E092D11150F8CFCA94F3011D
:101B6000EC0DF11D8081B70190E088D1C110F6CF56
:101B700015C0F4E0F51550F584E0581A93FE1EC028
:101B8000011125C02C8523FF27C006E811E0392D5F
:101B90003071932EF8018491811121C0552009F4F0
:101BA000FCCCB70180E290E069D15A94F7CFF701FD
:101BB0008681978123C08FEF9FEF20C0B70180E21D
:101BC00090E05CD15A945110F9CFDACF512CB70183
:101BD000802F90E053D1D6CF0AE811E0D8CF9110F2
:101BE0008052B70190E04AD10F5F1F4FD3CF23E05F
:101BF000251510F483E0C1CF512CC4CF60960FB6E9
:101C0000F894DEBF0FBECDBFDF91CF911F910F9132
:101C1000FF90EF90DF90CF90BF90AF909F908F900C
:101C20007F906F905F904F903F902F900895EE0FB0
:101C3000FF1F0024001C0BBE0790F691E02D0994B5
:101C4000FC0188279927E89421912032E9F3293073
:101C500010F02E30C8F32B3239F02D3231F4689465
:101C600003C004D1820F911D219120532A30C8F363
:101C70001EF4909581959F4F0895283008F027E035
:101C80003327DA01990F311D87FD916000966105B8
:101C9000710539F432602E5F3D9330E32A95E1F708
:101CA00008959F3F30F080387105610509F03C5F71
:101CB0003C5F3D93913008F08068911DDF93CF9396
:101CC0001F930F93FF92EF92192F987F9695E92F0C
:101CD00096959695E90FFF27E851FE4F99273327F0
:101CE000EE24FF24A701E70105900894079428F447
:101CF000360FE71EF81E491F511D660F771F881FFC
:101D0000991F0694A1F70590079428F4E70EF81E92
:101D1000491F561FC11D770F881F991F661F069404
:101D2000A1F70590079428F4F80E491F561FC71F06
:101D3000D11D880F991F661F771F0694A1F7059084
:101D4000079420F4490F561FC71FD81F990F661F0D
:101D5000771F881F0694A9F784911095177041F09A
:101D6000D695C79557954795F794E7941A95C1F777
:101D7000EEE8F1E068941590159135916591959193
:101D800005907FE27395E118F10A430B560BC90BDE
:101D9000D009C0F7E10CF11E431F561FC91FD01D0B
:101DA0007EF4703311F48A95E6CFE894015030F058
:101DB000080F0AF40027021708F4202F2395022F9A
:101DC0007A3328F079E37D932A95E9F710C07D9363
:101DD0002A9589F6069497956795379517951794E0
:101DE000E118F10A430B560BC90BD00998F0239563
:101DF0007E9173957A3308F070E37C932013B8F7E3
:101E00007E9170617D9330F0839571E37D9370E3F3
:101E10002A95E1F71124EF90FF900F911F91CF9138
:101E2000DF91992787FD90950895FC0105906150F9
:101E300070400110D8F7809590958E0F9F1F0895E0
:101E4000FC018191861721F08823D9F799270895FD
:101E50003197CF010895FC0161507040019001104D
:101E6000D8F7809590958E0F9F1F08957AE0979FE1
:101E7000902D879F802D910D112408950F931F930E
:101E8000CF93DF93FB01238121FD03C08FEF9FEFF1
:101E90002CC022FF16C0468157812481358142170C
:101EA000530744F4A081B1819D012F5F3F4F3183DF
:101EB00020838C93268137812F5F3F4F3783268382
:101EC00014C08B01EC01FB010084F185E02D099524
:101ED000892BE1F6D80116968D919C911797019662
:101EE00017969C938E931697CE01DF91CF911F91F9
:101EF0000F9108950F931F93CF93DF93CDB7DEB764
:101F00002E970FB6F894DEBF0FBECDBF8C01FA013D
:101F100086E08C831A83098377FF02C060E070E853
:101F2000CB0101979E838D83A901BF01CE0101964C
:101F3000F5DA4D815E8157FD0AC02F813885421741
:101F400053070CF49A01F801E20FF31F10822E964A
:101F50000FB6F894DEBF0FBECDBFDF91CF911F91BA
:101F60000F9108950F931F93CF93DF93CDB7DEB7F3
:101F70002E970FB6F894DEBF0FBECDBF8C0186E062
:101F80008C831A8309838FEF9FE79E838D83CE0115
:101F90000196C4DAEF81F885E00FF11F10822E96CA
:101FA0000FB6F894DEBF0FBECDBFDF91CF911F916A
:101FB0000F910895FA01AA27283051F1203181F1BB
:101FC000E8946F936E7F6E5F7F4F8F4F9F4FAF4F41
:101FD000B1E03ED0B4E03CD0670F781F891F9A1F54
:101FE000A11D680F791F8A1F911DA11D6A0F711D08
:101FF000811D911DA11D20D009F468943F912AE014
:10200000269F11243019305D3193DEF6CF010895FB
:10201000462F4770405D4193B3E00FD0C9F7F6CF2C
:10202000462F4F70405D4A3318F0495D31FD4052F4
:10203000419302D0A9F7EACFB4E0A695979587958A
:1020400077956795BA95C9F7009761057105089569
:102050009B01AC010A2E0694579547953795279515
:10206000BA95C9F7620F731F841F951FA01D0895AD
:04207000F894FFCF12
:10207400434D443A2025642C2025642C2025642CCF
:102084002025640A005265736574696E672E2E2ECE
:102094000A004D6167313A20256420430A004D61EE
:1020A4006731206572726F720A004D6167313A20A0
:1020B400252E31662C20252E31662C20252E3166C6
:1020C4002075540A004D61673120696E6974696135
:1020D4006C697A65642E0A000A2D2D2D204F424327
:1020E4002D494E464F202D2D2D0A00454D312E30C1
:1020F4000048572D5645523A2025730A00666661FA
:102104003634386500436F6D6D69743A2025730A5F
:10211400004144432074657374206661696C65648E
:102124002E0A0041444320746573742073756363FD
:1021340065737366756C2E0A005425643A20005446
:102144004D5033363A20252E316620430A00256649
:1021540020560A00252E336620560A00252E3366A3
:10216400206D410A0052583A20004779726F20329C
:1021740020696E697469616C697A65640A004D61ED
:1021840067323A202578200A004D616720322069A1
:102194006E697469616C697A65640A004779726F63
:1021A400323A2025642043200A004779726F322096
:1021B400583A20256420200A004779726F3220594A
:1021C4003A20256420200A004779726F32205A3A57
:0821D40020256420200A000010
:00000001FF
